:100000000C942A000C943C000C943C000C943C0092
:100010000C943C000C943C000C943C000C943C0070
:100020000C943C000C943C000C943C000C943C0060
:100030000C943C000C943C000C943C000C943C0050
:100040000C943C000C943C000C943C000C94A600D6
:100050000C943C0011241FBECFE5D8E0DEBFCDBF1D
:1000600020E0A0E6B0E001C01D92A836B207E1F79B
:100070000E9482000C942A010C940000882319F03D
:10008000813041F008958FEF90E0861B91099BBD70
:100090008ABD08958FEF90E0861B910999BD88BDB8
:1000A0000895882319F0813039F00895611102C054
:1000B000D89A0895D8980895611102C0D9980895E2
:1000C000D99A08958AB383608ABB81B3806381BB68
:1000D00060E080E00E943E0060E081E00E943E001F
:1000E00061E080E00E94510061E081E00E945100E7
:1000F00081EF8FBD89E08EBD87E182B985E486BF3F
:10010000789408950E946200FFCFCF93C3B180918D
:10011000670081110CC081E0C1FB992790F99827F5
:1001200090936100C827C170C09360000DC08130FA
:1001300059F460916000809161000E9451006C2F21
:10014000809161000E943E00CF9108951F920F920E
:100150000FB60F9211242F933F934F935F936F939A
:100160007F938F939F93AF93BF93CF93EF93FF931F
:10017000CFB7F89481B1887F8838A1F160F48036D8
:10018000B9F020F4882309F450C051C0883621F119
:10019000803899F04CC0883B89F128F4803AF9F016
:1001A000883A19F144C0803CE9F1883CD9F13FC05C
:1001B00085EC86BF109267003AC00E94850080914E
:1001C00067008F5F80936700863018F085E886BFF0
:1001D0002EC085EC86BF2BC081E08093660085EC45
:1001E00086BF25C085EC86BF22C081E08093650074
:1001F0008091620083B985EC86BF19C0E0916500EB
:10020000F0E0EE59FF4F808183B9809165008F5FE8
:1002100080936500833018F085E886BF08C085ECC0
:1002200086BF05C085EC86BF02C085ED86BFCFBF07
:10023000FF91EF91CF91BF91AF919F918F917F915E
:100240006F915F914F913F912F910F900FBE0F9043
:080250001F901895F894FFCFF0
:00000001FF
