:100000000C942A000C9434040C9497040C943C0037
:100010000C943C000C943C000C943C000C943C0070
:100020000C943C000C943C000C943C000C94FA049E
:100030000C943C000C943C000C943C000C943C0050
:100040000C943C000C943C000C943C000C94C900B3
:100050000C943C0011241FBECFE5D8E0DEBFCDBF1D
:1000600021E0A0E6B0E001C01D92A132B207E1F7A5
:100070000E94A8000C9483050C94000080E00E946C
:100080005801811108C060E00E94740162E380E0C1
:100090000E944D010DC080E00E946501811104C0E5
:1000A00061E00E94740104C060E080E00E944D01A4
:1000B00081E00E945801811109C060E081E00E9446
:1000C000740162E381E00E944D01089581E00E9485
:1000D0006501811105C061E081E00E94740108950D
:1000E00060E081E00E944D010895809191008C5E56
:1000F00080939100809173008C5E809373000895CB
:10010000CA9B03C01092630009C0809163008111F3
:1001100002C00E943E0081E080936300CB9B03C03D
:1001200010926200089580916200811102C00E94C5
:10013000750081E08093620008958BB38C608BBB67
:1001400087E182B985E486BF0E94AD017894089565
:100150000E949D000E94FB030E948000FBCF93B190
:100160008091690081110CC081E091FB222720F968
:10017000282720936100982791709093600008953C
:10018000813031F460916000809161000E947401BF
:1001900008951F920F920FB60F9211242F933F9341
:1001A0004F935F936F937F938F939F93AF93BF937F
:1001B000CF93EF93FF93CFB7F89481B1887F8838BE
:1001C000A1F160F48036B9F020F4882309F450C01E
:1001D00051C0883621F1803899F04CC0883B89F1B4
:1001E00028F4803AF9F0883A19F144C0803CE9F1EA
:1001F000883CD9F13FC085EC86BF109269003AC0B7
:100200000E94AF00809169008F5F80936900863003
:1002100018F085E886BF2EC085EC86BF2BC081E034
:100220008093680085EC86BF25C085EC86BF22C020
:1002300081E0809367008091640083B985EC86BF7C
:1002400019C0E0916700F0E0EC59FF4F808183B95D
:10025000809167008F5F80936700833018F085E896
:1002600086BF08C085EC86BF05C085EC86BF02C08E
:1002700085ED86BFCFBFFF91EF91CF91BF91AF9139
:100280009F918F917F916F915F914F913F912F91AE
:100290000F900FBE0F901F901895882319F0813092
:1002A00021F008956093910008956093730008957C
:1002B000882319F0813021F006C0809191000895C3
:1002C00080917300089580E00895882319F08130AB
:1002D00029F008C08BB38095817008958BB3869503
:1002E0008170089580E00895882319F08130D9F055
:1002F000089580917100681771F0109288008FEF57
:1003000090E09BBD8ABD10927D0010927E001092FD
:100310007F0010928000611102C0D89A01C0D89865
:1003200060937100089580919600681771F01092A3
:100330001E018FEF90E099BD88BD1092920010923F
:1003400093001092940010929500611102C0D99808
:1003500001C0D99A60939600089510928B00109274
:100360008A001092890010921D0110921C011092B7
:100370001B011092200110921F0110926F00109229
:100380006E0081E0809385001092760010928700C5
:1003900088E28093740010927000109272001092A4
:1003A0008C001092910010927300109286001092AF
:1003B00075001092880010921E0110927100109228
:1003C000960010927D0010927E0010927F00109295
:1003D000800010929200109293001092940010925C
:1003E00095008AB383608ABB81B3806381BB60E080
:1003F00080E00E94740161E081E00E94740110922B
:1004000088008FEF90E09BBD8ABD10921E0199BDC0
:1004100088BD109291001092730081EF8FBD89E02A
:100420008EBD85B7856085BF8BB7806C8BBF12BED4
:1004300082E083BF89B7816089BF08954F925F9240
:100440006F927F928F929F92AF92BF92CF92DF92E4
:10045000EF92FF920F931F9380919100853138F4B2
:10046000109288008FEF90E09BBD8ABDD5C0C82E4A
:10047000D12CE12CF12C80918600C81AD108E1081A
:10048000F108C0921701D0921801E0921901F09280
:100490001A0180917D0090917E00A0917F00B09123
:1004A00080008C0D9D1DAE1DBF1D80937D0090931F
:1004B0007E00A0937F00B0938000893E03E0900708
:1004C000A105B1056CF088EE93E0A0E0B0E0809368
:1004D0007D0090937E00A0937F00B093800011C0B8
:1004E00088319C4FAF4FBF4F64F488E19CEFAFEF72
:1004F000BFEF80937D0090937E00A0937F00B09328
:100500008000A0E2B3E0A70196010E9447050F2EEC
:10051000F8EE8F2EF3E09F2EA12CB12CF02DA5012B
:1005200094010E94280529013A0120917D00309113
:100530007E0040917F0050918000A4E6B0E00E94D0
:100540004705A50194010E942805420E531E641E12
:10055000751E8091810090918200A0918300B091DE
:100560008400A7019601281B390B4A0B5B0BACE2F8
:10057000B1E00E944705A50194010E942805BA0137
:10058000A901440D551D661D771D809188008A01C3
:100590009B01080F111D211D311D00936A0010934E
:1005A0006B0020936C0030936D0033234CF4109259
:1005B0006A0010926B0010926C0010926D0012C0D5
:1005C0000F3F11052105310569F064F08FEF90E0D0
:1005D000A0E0B0E080936A0090936B00A0936C0061
:1005E000B0936D0020916A00209388008FEF90E017
:1005F000821B91099BBD8ABD8091170190911801C2
:10060000A0911901B0911A0180938100909382000A
:10061000A0938300B093840080917300853138F4F7
:1006200010921E018FEF90E099BD88BDD5C0C82EF5
:10063000D12CE12CF12C80917500C81AD108E10869
:10064000F108C0921701D0921801E0921901F092BE
:100650001A018091920090919300A0919400B09122
:1006600095008C0D9D1DAE1DBF1D80939200909333
:100670009300A0939400B0939500893E13E09107F6
:10068000A105B1056CF088EE93E0A0E0B0E08093A6
:10069000920090939300A0939400B093950011C0A2
:1006A00088319C4FAF4FBF4F64F488E19CEFAFEFB0
:1006B000BFEF8093920090939300A0939400B09327
:1006C0009500A0E2B3E0A70196010E9447050F2E16
:1006D000F8EE8F2EF3E09F2EA12CB12CF02DA5016A
:1006E00094010E94280529013A012091920030913D
:1006F00093004091940050919500A4E6B0E00E94D0
:100700004705A50194010E942805420E531E641E50
:10071000751E80918D0090918E00A0918F00B091F8
:100720009000A7019601281B390B4A0B5B0BACE22A
:10073000B1E00E944705A50194010E942805BA0175
:10074000A901440D551D661D771D80911E018A016A
:100750009B01080F111D211D311D00936A0010938C
:100760006B0020936C0030936D0033234CF4109297
:100770006A0010926B0010926C0010926D0012C013
:100780000F3F11052105310569F064F08FEF90E00E
:10079000A0E0B0E080936A0090936B00A0936C009F
:1007A000B0936D0020916A0020931E018FEF90E0BE
:1007B000821B910999BD88BD809117019091180104
:1007C000A0911901B0911A0180938D0090938E0031
:1007D000A0938F00B09390001F910F91FF90EF9026
:1007E000DF90CF90BF90AF909F908F907F906F9051
:1007F0005F904F900895809170008823A1F110922E
:1008000070008091760090E09C01220F331F880FCA
:10081000991F880F991F880F991F280F391F822F42
:10082000932F4091870050E0BA01660F771F440F65
:10083000551F440F551F440F551F460F571F109249
:100840007600109287004F3F510511F008F04FEFEE
:10085000409386008F3F910511F008F02FEF209311
:1008600075000E941E0208951F920F920FB60F92FC
:1008700011242F933F934F935F936F937F938F93A5
:100880009F93AF93BF93EF93FF933FB7F89422B733
:10089000829B39C080911C0190911B01682F691BBC
:1008A00070E0962F422F481B640F711D80E00E945C
:1008B0001405862F972F40918500442379F08A3ABA
:1008C000910560F480911F01909120018B3A910570
:1008D00028F0809176008F5F8093760060931F01EF
:1008E0007093200180918C00E82FEF71F0E0EE0F03
:1008F000FF1FE952FF4F608371838F5F80938C00ED
:1009000020931B0102C020931C013FBFFF91EF9178
:10091000BF91AF919F918F917F916F915F914F9117
:100920003F912F910F900FBE0F901F9018951F921F
:100930000F920FB60F9211242F933F934F935F9313
:100940006F937F938F939F93AF93BF93EF93FF9397
:100950003FB7F89422B7839B39C080918A00909169
:100960008900682F691B70E0962F422F481B640F87
:10097000711D80E00E941405862F972F40918500FD
:10098000442379F08A3A910560F480916E00909149
:100990006F008B3A910528F0809187008F5F8093DC
:1009A000870060936E0070936F0080917200E82F53
:1009B000EF71F0E0EE0FFF1FE956FF4F6083718388
:1009C0008F5F809372002093890002C020938A0079
:1009D0003FBFFF91EF91BF91AF919F918F917F9119
:1009E0006F915F914F913F912F910F900FBE0F909C
:1009F0001F9018951F920F920FB60F9211248F938C
:100A000080917400882321F081508093740006C087
:100A100088E28093740081E0809370008F910F9042
:100A20000FBE0F901F901895AA1BBB1B51E107C06A
:100A3000AA1FBB1FA617B70710F0A61BB70B881F6E
:100A4000991F5A95A9F780959095BC01CD010895FD
:100A5000052E97FB1EF400940E943F0557FD07D01A
:100A60000E94520507FC03D04EF40C943F055095AC
:100A70004095309521953F4F4F4F5F4F089590958A
:100A80008095709561957F4F8F4F9F4F08950E947D
:100A90007405A59F900DB49F900DA49F800D911D8E
:100AA00011240895A1E21A2EAA1BBB1BFD010DC043
:100AB000AA1FBB1FEE1FFF1FA217B307E407F5070E
:100AC00020F0A21BB30BE40BF50B661F771F881FEA
:100AD000991F1A9469F760957095809590959B0180
:100AE000AC01BD01CF010895A29FB001B39FC00129
:100AF000A39F700D811D1124911DB29F700D811D4A
:0A0B00001124911D0895F894FFCF11
:00000001FF
