S01600004556434D6F746F724472697665722E73726563B3
S11300000C942A000C9434000C9434000C943400A6
S11300100C9434000C9434000C9434000C9434008C
S11300200C9434000C9434000C9434000C9434007C
S11300300C9434000C9434000C9434000C9434006C
S11300400C9434000C9434000C9434000C9434005C
S11300500C94340011241FBECFE5D8E0DEBFCDBF21
S11300600E9449000C944C000C9400008AB38360F5
S11300708ABB81B3806381BB8FEF90E09BBD8ABD57
S113008099BD88BDD89AD99881EF8FBD89E08EBD7E
S10F009008950E943600FFCFF894FFCFC3
S9030000FC
