:100000000C942A000C9414040C9465040C943C0089
:100010000C943C000C943C000C943C000C943C0070
:100020000C943C000C943C000C943C000C94B604E2
:100030000C943C000C943C000C943C000C943C0050
:100040000C943C000C943C000C943C000C94BD00BF
:100050000C943C0011241FBECFE5D8E0DEBFCDBF1D
:1000600020E0A0E6B0E001C01D92AF39B207E1F791
:100070000E949C000C943F050C94000060E080E01E
:100080000E94410160E081E00E9441010895809159
:100090007200882321F080918F00811109C064E6ED
:1000A00080E00E94410164E681E00E9441010895E0
:1000B00080E00E944C01811104C061E00E945B015C
:1000C00004C060E080E00E945B0181E00E944C017E
:1000D000811105C061E081E00E945B01089560E04C
:1000E00081E00E945B010895CA9B03C010926300E7
:1000F00009C080916300811102C00E943E0081E02E
:1001000080936300CB9B03C010926200089580919E
:100110006200811102C00E94470081E0809362006A
:1001200008958BB38C608BBB87E182B985E486BF71
:100130000E949001789408950E9491000E94DB0330
:100140000E947400FBCF93B18091690081110CC0B3
:1001500081E091FB222720F928272093610098272E
:100160009170909360000895813031F46091600047
:10017000809161000E945B0108951F920F920FB65B
:100180000F9211242F933F934F935F936F937F931D
:100190008F939F93AF93BF93CF93EF93FF93CFB77B
:1001A000F89481B1887F8838A1F160F48036B9F085
:1001B00020F4882309F450C051C0883621F18038DA
:1001C00099F04CC0883B89F128F4803AF9F0883ADC
:1001D00019F144C0803CE9F1883CD9F13FC085EC7D
:1001E00086BF109269003AC00E94A3008091690006
:1001F0008F5F80936900863018F085E886BF2EC037
:1002000085EC86BF2BC081E08093680085EC86BFBB
:1002100025C085EC86BF22C081E080936700809175
:10022000640083B985EC86BF19C0E0916700F0E0F7
:10023000EC59FF4F808183B9809167008F5F809375
:100240006700833018F085E886BF08C085EC86BF5C
:1002500005C085EC86BF02C085ED86BFCFBFFF918C
:10026000EF91CF91BF91AF919F918F917F916F91BE
:100270005F914F913F912F910F900FBE0F901F9064
:100280001895882319F0813021F0089560938F002C
:100290000895609372000895882319F0813029F041
:1002A00008C08BB38095817008958BB3869581705B
:1002B000089580E00895882319F08130C9F00895E9
:1002C00080917100681771F0109287008FEF90E0B5
:1002D0009BBD8ABD10927C0010927D0010927E0022
:1002E00010927F00611102C0D89A0895D89808959D
:1002F00080919400681771F010929C008FEF90E04D
:1003000099BD88BD109290001092910010929200B9
:1003100010929300611102C0D9980895D99A089556
:1003200010928A00109289001092880010929B000F
:1003300010929A001092990010929E0010929D00C7
:1003400010926F0010926E0081E0809384001092F2
:1003500075001092860088E28093730010927000FE
:1003600010928F001092720010928500109274000B
:100370001092870010929C001092710010929400CD
:1003800010927C0010927D0010927E0010927F00EF
:10039000109290001092910010929200109293008F
:1003A0008AB383608ABB81B3806381BB60E080E0F5
:1003B0000E945B0161E081E00E945B011092870076
:1003C0008FEF90E09BBD8ABD10929C0099BD88BDC7
:1003D00010928F0084E68093720081EF8FBD89E0D8
:1003E0008EBD85B7856085BF8BB7806C8BBF12BE15
:1003F00082E083BF89B7816089BF08954F925F9281
:100400006F927F928F929F92AF92BF92CF92DF9224
:10041000EF92FF920F931F9380918F00853138F4F4
:10042000109287008FEF90E09BBD8ABDD5C0C82E8B
:10043000D12CE12CF12C80918500C81AD108E1085B
:10044000F108C0929500D0929600E0929700F09249
:10045000980080917C0090917D00A0917E00B091E9
:100460007F008C0D9D1DAE1DBF1D80937C00909361
:100470007D00A0937E00B0937F00893E03E090074B
:10048000A105B1056CF088EE93E0A0E0B0E08093A8
:100490007C0090937D00A0937E00B0937F0011C0FC
:1004A00088319C4FAF4FBF4F64F488E19CEFAFEFB2
:1004B000BFEF80937C0090937D00A0937E00B0936B
:1004C0007F00A0E2B3E0A70196010E9403050F2E72
:1004D000F8EE8F2EF3E09F2EA12CB12CF02DA5016C
:1004E00094010E94E40429013A0120917C0030919A
:1004F0007D0040917E0050917F00A4E6B0E00E9414
:100500000305A50194010E94E404420E531E641EDB
:10051000751E8091800090918100A0918200B09121
:100520008300A7019601281B390B4A0B5B0BACE239
:10053000B1E00E940305A50194010E94E404BA0100
:10054000A901440D551D661D771D809187008A0104
:100550009B01080F111D211D311D00936A0010938E
:100560006B0020936C0030936D0033234CF4109299
:100570006A0010926B0010926C0010926D0012C015
:100580000F3F11052105310569F064F08FEF90E010
:10059000A0E0B0E080936A0090936B00A0936C00A1
:1005A000B0936D0020916A00209387008FEF90E058
:1005B000821B91099BBD8ABD809195009091960008
:1005C000A0919700B0919800809380009093810053
:1005D000A0938200B093830080917200853138F43B
:1005E00010929C008FEF90E099BD88BDD5C0C82EB9
:1005F000D12CE12CF12C80917400C81AD108E108AB
:10060000F108C0929500D0929600E0929700F09287
:1006100098008091900090919100A0919200B091EB
:1006200093008C0D9D1DAE1DBF1D80939000909377
:100630009100A0939200B0939300893E13E091073C
:10064000A105B1056CF088EE93E0A0E0B0E08093E6
:10065000900090939100A0939200B093930011C0EA
:1006600088319C4FAF4FBF4F64F488E19CEFAFEFF0
:10067000BFEF8093900090939100A0939200B0936D
:100680009300A0E2B3E0A70196010E9403050F2E9C
:10069000F8EE8F2EF3E09F2EA12CB12CF02DA501AA
:1006A00094010E94E40429013A01209190003091C4
:1006B00091004091920050919300A4E6B0E00E9416
:1006C0000305A50194010E94E404420E531E641E1A
:1006D000751E80918B0090918C00A0918D00B0913F
:1006E0008E00A7019601281B390B4A0B5B0BACE26D
:1006F000B1E00E940305A50194010E94E404BA013F
:10070000A901440D551D661D771D80919C008A012D
:100710009B01080F111D211D311D00936A001093CC
:100720006B0020936C0030936D0033234CF41092D7
:100730006A0010926B0010926C0010926D0012C053
:100740000F3F11052105310569F064F08FEF90E04E
:10075000A0E0B0E080936A0090936B00A0936C00DF
:10076000B0936D0020916A0020939C008FEF90E081
:10077000821B910999BD88BD80919500909196004A
:10078000A0919700B091980080938B0090938C007B
:10079000A0938D00B0938E001F910F91FF90EF906A
:1007A000DF90CF90BF90AF909F908F907F906F9091
:1007B0005F904F900895809170008823A1F110926E
:1007C00070008091750090E09C01220F331F880F0C
:1007D000991F880F991F880F991F280F391F822F83
:1007E000932F4091860050E0BA01660F771F440FA7
:1007F000551F440F551F440F551F460F571F10928A
:100800007500109286004F3F510511F008F04FEF30
:10081000409385008F3F910511F008F02FEF209352
:1008200074000E94FE0108951F920F920FB60F925E
:1008300011242F933F934F935F936F937F938F93E5
:100840009F93AF93BF933FB7F89422B7829B2BC07F
:1008500080919A0090919900682F691B70E0962F03
:10086000422F481B640F711D80E00E94D004862F28
:10087000972F40918400442379F08A3A910560F4DF
:1008800080919D0090919E008B3A910528F0809177
:1008900075008F5F8093750060939D0070939E003C
:1008A0002093990002C020939A003FBFBF91AF915F
:1008B0009F918F917F916F915F914F913F912F9178
:1008C0000F900FBE0F901F9018951F920F920FB6AA
:1008D0000F9211242F933F934F935F936F937F93C6
:1008E0008F939F93AF93BF933FB7F89422B7829BA8
:1008F0002BC08091890090918800682F691B70E05F
:10090000962F422F481B640F711D80E00E94D00477
:10091000862F972F40918400442379F08A3A9105DD
:1009200060F480916E0090916F008B3A910528F0F1
:10093000809186008F5F8093860060936E00709335
:100940006F002093880002C0209389003FBFBF91B1
:10095000AF919F918F917F916F915F914F913F9157
:100960002F910F900FBE0F901F9018951F920F920E
:100970000FB60F9211248F9380917300882321F07A
:1009800081508093730006C088E28093730081E0F9
:10099000809370008F910F900FBE0F901F9018954D
:1009A000AA1BBB1B51E107C0AA1FBB1FA617B70795
:1009B00010F0A61BB70B881F991F5A95A9F78095B1
:1009C0009095BC01CD010895052E97FB1EF400946F
:1009D0000E94FB0457FD07D00E940E0507FC03D0C0
:1009E0004EF40C94FB0450954095309521953F4F63
:1009F0004F4F5F4F089590958095709561957F4F0B
:100A00008F4F9F4F08950E943005A59F900DB49F72
:100A1000900DA49F800D911D11240895A1E21A2E1E
:100A2000AA1BBB1BFD010DC0AA1FBB1FEE1FFF1F92
:100A3000A217B307E407F50720F0A21BB30BE40BE2
:100A4000F50B661F771F881F991F1A9469F7609529
:100A50007095809590959B01AC01BD01CF010895E3
:100A6000A29FB001B39FC001A39F700D811D1124EF
:100A7000911DB29F700D811D1124911D0895F89450
:020A8000FFCFA6
:00000001FF
