:100000000C942A000C94DE010C9441020C944700DD
:100010000C9447000C9447000C9447000C94470044
:100020000C9447000C9447000C9447000C948A02EF
:100030000C9447000C9447000C9447000C94470024
:100040000C9447000C9447000C9447000C94A402B5
:100050000C94470011241FBECFE5D8E0DEBFCDBF12
:1000600010E0A0E6B0E0E2E3F7E002C005900D92F8
:10007000A236B107D9F721E0A2E6B0E001C01D9297
:10008000A231B207E1F70E94D9010C9497030C94B6
:100090000000882319F0813039F00895611102C001
:1000A000D89A0895D8980895611102C0D9980895F2
:1000B000D99A08958AB383608ABB81B3806381BB78
:1000C00060E080E00E94490060E081E00E94490019
:1000D000109273008FEF90E09BBD8ABD109272006A
:1000E00099BD88BD1092770084E68093760081EFF9
:1000F0008FBD89E08EBD87E182B985E486BF85B773
:10010000856085BF8BB7806C8BBF12BE82E083BFDA
:1001100089B7816089BF7894089593B18091710007
:1001200081110CC081E091FB222720F92827209320
:100130006B009827917090936A000895813031F494
:1001400060916A0080916B000E94490008958F922F
:100150009F92AF92BF92CF92DF92EF92FF92209147
:100160007700422F50E060E070E0809175009A01C6
:10017000AB01281B3109410951098091660090911A
:100180006700A0916800B0916900820F931FA41FBF
:10019000B51F88316CEF96076FEFA607B6074CF0D6
:1001A0008093660090936700A0936800B093690005
:1001B0000CC088E19CEFAFEFBFEF80936600909397
:1001C0006700A0936800B093690088E7809373008C
:1001D00087E890E09BBD8ABD20917600422F50E0D9
:1001E00060E070E0809174009A01AB01281B310936
:1001F0004109510920930E0130930F0140931001E2
:10020000509311018091620090916300A09164006D
:10021000B0916500820F931FA41FB51F80936200E9
:1002200090936300A0936400B0936500893E63E0FF
:100230009607A105B1056CF088EE93E0A0E0B0E070
:100240008093620090936300A0936400B093650074
:1002500011C088319C4FAF4FBF4F64F488E19CEFD1
:10026000AFEFBFEF8093620090936300A0936400B0
:10027000B0936500A4EFB1E00E945B030F2EF8EE8F
:10028000CF2EF3E0DF2EE12CF12CF02DA70196010B
:100290000E943C0349015A012091620030916300A1
:1002A0004091640050916500A2E3B0E00E945B03BE
:1002B000A70196010E943C03D501C401820F931F40
:1002C000A41FB51F20917200820F911DA11DB11DA9
:1002D0008093840090938500A0938600B09387005C
:1002E000BB234CF41092840010928500109286007B
:1002F0001092870012C08F3F9105A105B10569F0EA
:1003000064F08FEF90E0A0E0B0E0809384009093E1
:100310008500A0938600B0938700209184002093ED
:1003200072008FEF90E0821B910999BD88BDFF900C
:10033000EF90DF90CF90BF90AF909F908F900895F7
:10034000809179008823A1F11092790080917B003F
:1003500090E09C01220F331F880F991F880F991F6F
:10036000880F991F280F391F822F932F40917A00F1
:1003700050E0BA01660F771F440F551F440F551FF9
:10038000440F551F460F571F10927B0010927A00A2
:100390004F3F510511F008F04FEF409375008F3F2C
:1003A000910511F008F02FEF209374000E94A70030
:1003B00008950E945A000E94A001FDCF1F920F9243
:1003C0000FB60F9211242F933F934F935F936F9328
:1003D0007F938F939F93AF93BF93EF93FF933FB719
:1003E000F89422B7829B39C080917F0090917E0063
:1003F000682F691B70E0962F422F481B640F711DF8
:1004000080E00E942803862F972F409161004423AB
:1004100079F08A3A910560F480917C0090917D009A
:100420008B3A910528F080917B008F5F80937B0051
:1004300060937C0070937D0080917800E82FEF73CB
:10044000F0E0EE0FFF1FE857FF4F608371838F5F6F
:100450008093780020937E0002C020937F003FBFEE
:10046000FF91EF91BF91AF919F918F917F916F918C
:100470005F914F913F912F910F900FBE0F901F9062
:1004800018951F920F920FB60F9211242F933F933E
:100490004F935F936F937F938F939F93AF93BF938C
:1004A0003FB7F89422B7829B23C04091810080918E
:1004B0008200841B982F622F641B70E080E00E94F2
:1004C0002803CB01992740918300841B910981382F
:1004D00091054CF080916100882329F080917A0089
:1004E0008F5F80937A00609383002093810002C025
:1004F000209382003FBFBF91AF919F918F917F91D9
:100500006F915F914F913F912F910F900FBE0F9080
:100510001F9018951F920F920FB60F9211248F9370
:1005200080916000882321F081508093600006C094
:1005300088E28093600081E0809379008F910F9032
:100540000FBE0F901F9018951F920F920FB60F922B
:1005500011242F933F934F935F936F937F938F93C8
:100560009F93AF93BF93CF93EF93FF93CFB7F8943D
:1005700081B1887F8838A1F160F48036B9F020F429
:10058000882309F450C051C0883621F1803899F091
:100590004CC0883B89F128F4803AF9F0883A19F187
:1005A00044C0803CE9F1883CD9F13FC085EC86BF6E
:1005B000109271003AC00E948D00809171008F5F8F
:1005C00080937100863018F085E886BF2EC085ECD8
:1005D00086BF2BC081E08093700085EC86BF25C06C
:1005E00085EC86BF22C081E080936F0080916C0013
:1005F00083B985EC86BF19C0E0916F00F0E0E45943
:10060000FF4F808183B980916F008F5F80936F006F
:10061000833018F085E886BF08C085EC86BF05C02A
:1006200085EC86BF02C085ED86BFCFBFFF91EF91FD
:10063000CF91BF91AF919F918F917F916F915F917A
:100640004F913F912F910F900FBE0F901F901895D3
:10065000AA1BBB1B51E107C0AA1FBB1FA617B707E8
:1006600010F0A61BB70B881F991F5A95A9F7809504
:100670009095BC01CD010895052E97FB1EF40094C2
:100680000E94530357FD07D00E94660307FC03D066
:100690004EF40C94530350954095309521953F4F5F
:1006A0004F4F5F4F089590958095709561957F4F5E
:1006B0008F4F9F4F08950E948803A59F900DB49F70
:1006C000900DA49F800D911D11240895A1E21A2E72
:1006D000AA1BBB1BFD010DC0AA1FBB1FEE1FFF1FE6
:1006E000A217B307E407F50720F0A21BB30BE40B36
:1006F000F50B661F771F881F991F1A9469F760957D
:100700007095809590959B01AC01BD01CF01089536
:10071000A29FB001B39FC001A39F700D811D112442
:10072000911DB29F700D811D1124911D0895F894A3
:02073000FFCFF9
:0207320028019C
:00000001FF
