:100000000C942A000C94E8010C9435020C943C00EA
:100010000C943C000C943C000C943C000C943C0070
:100020000C943C000C943C000C943C000C943C0060
:100030000C943C000C943C000C943C000C943C0050
:100040000C943C000C943C000C943C000C948202F8
:100050000C943C0011241FBECFE5D8E0DEBFCDBF1D
:1000600020E0A0E6B0E001C01D92AE39B207E1F792
:100070000E94E3010C942E030C940000882319F0D5
:10008000813039F00895611102C0D89A0895D89846
:100090000895611102C0D9980895D99A08958AB334
:1000A00083608ABB81B3806381BB60E080E00E9493
:1000B0003E0060E081E00E943E008FEF90E09BBD3B
:1000C0008ABD99BD88BD1092710084E6809370004E
:1000D00081EF8FBD89E08EBD87E182B985E486BF5F
:1000E00085B7856085BF8BB7806C8BBF12BE82E001
:1000F00083BF7894089593B180916F0081110CC0F3
:1001000081E091FB222720F9282720936900982776
:100110009170909368000895813031F46091680087
:10012000809169000E943E0008950F931F938111F2
:1001300045C0E0917100F0E080917200E81BF10988
:10014000AF01662757FD6095762F009164001091EE
:1001500065002091660030916700400F511F621FBB
:10016000731F409364005093650060936600709322
:1001700067002AB53BB5CF01880F991FEE0FFF1F0F
:10018000EE0FFF1FEE0FFF1F8E0F9F1F68EE73E035
:100190000E941A032095620F711D772314F460E00A
:1001A00070E06F3F710519F014F06FEF70E08FEFA2
:1001B00090E0861B91099BBD8ABD57C0E0917000FD
:1001C000F0E080917300E81BF1098F01222717FDF1
:1001D0002095322F40916000509161006091620043
:1001E00070916300400F511F621F731F493E83E0EF
:1001F0005807610571054CF440936000509361000D
:1002000060936200709363000CC048EE53E060E0BE
:1002100070E04093600050936100609362007093BF
:10022000630028B539B5CF01880F991FEE0FFF1F66
:10023000EE0FFF1FEE0FFF1F8E0F9F1F68EE73E084
:100240000E941A032095620F711D772314F460E059
:1002500070E06F3F710519F014F06FEF70E08FEFF1
:1002600090E0861B910999BD88BD1F910F9108955B
:10027000CF92DF92EF92FF920F931F93CF93DF9372
:100280006C017B018B0120E030E0C0E0D0E0F601A2
:10029000E20FF31F408150E08181BA01680F711DA8
:1002A000C60FD71F942F80E00E940603F8016193C8
:1002B0008F012E5F3F4F2630310549F7F70141810D
:1002C00050E080819A01281B3109C901992324F447
:1002D00088279927821B930B9C018138910524F074
:1002E00020E031E0281B390BB901F701828190E051
:1002F0009C01241B350BC901992324F488279927D5
:10030000821B930B9C018138910524F020E031E0A1
:10031000281B390B260F371FBE01660F771F6C0F86
:100320007D1F80E098E00E940603269FC001279F62
:10033000900D369F900D11248431910528F08F3F48
:10034000910509F018F403C080E001C08FEFDF9140
:10035000CF911F910F91FF90EF90DF90CF90089574
:1003600080917500811115C080917600811103C0C4
:1003700088E990E002C082E990E063E870E00E94C2
:1003800038018093730081E00E94950081E08093A2
:10039000750080917400811115C0809177008111E2
:1003A00003C08CE890E002C086E890E060E870E06E
:1003B0000E9438018093720080E00E94950081E0E5
:1003C0008093740008950E944F000E94B001FDCFF9
:1003D0001F920F920FB60F9211242F933F934F93BA
:1003E0008F939F93EF93FF939FB7F89482B7829B6D
:1003F00021C020917600E22FF0E0EE0FFF1FEE56B5
:10040000FF4F30917800482F431B41833091750096
:100410003323E1F02F5F209376003BEA239F312DB9
:1004200011243695432F440F340F23130FC010921D
:1004300075000CC0E0917600F0E0EE0FFF1FEE5665
:10044000FF4F20917800382F321B30838093780043
:100450009FBFFF91EF919F918F914F913F912F916E
:100460000F900FBE0F901F9018951F920F920FB60E
:100470000F9211242F933F934F938F939F93EF935A
:10048000FF939FB7F89482B7829B21C02091770099
:10049000E22FF0E0EE0FFF1FEA57FF4F3091790097
:1004A000482F431B4183309174003323E1F02F5FC9
:1004B000209377003BEA239F312D11243695432F5B
:1004C000440F340F23130FC0109274000CC0E0913E
:1004D0007700F0E0EE0FFF1FEA57FF4F2091790001
:1004E000382F321B3083809379009FBFFF91EF91AB
:1004F0009F918F914F913F912F910F900FBE0F9031
:100500001F9018951F920F920FB60F9211242F93E0
:100510003F934F935F936F937F938F939F93AF938B
:10052000BF93CF93EF93FF93CFB7F89481B1887FB8
:100530008838A1F160F48036B9F020F4882309F4FA
:1005400050C051C0883621F1803899F04CC0883BAA
:1005500089F128F4803AF9F0883A19F144C0803CD6
:10056000E9F1883CD9F13FC085EC86BF10926F005D
:100570003AC00E947B0080916F008F5F80936F0074
:10058000863018F085E886BF2EC085EC86BF2BC06C
:1005900081E080936E0085EC86BF25C085EC86BF28
:1005A00022C081E080936D0080916A0083B985EC60
:1005B00086BF19C0E0916D00F0E0E659FF4F8081E1
:1005C00083B980916D008F5F80936D00833018F048
:1005D00085E886BF08C085EC86BF05C085EC86BF70
:1005E00002C085ED86BFCFBFFF91EF91CF91BF9144
:1005F000AF919F918F917F916F915F914F913F91BB
:100600002F910F900FBE0F901F901895AA1BBB1B28
:1006100051E107C0AA1FBB1FA617B70710F0A61B02
:10062000B70B881F991F5A95A9F780959095BC0123
:10063000CD01089597FB072E16F4009407D077FD9F
:1006400009D00E94060307FC05D03EF490958195E1
:100650009F4F0895709561957F4F0895F894FFCF4F
:00000001FF
